:1000000060C0E9C179C078C077C091C375C074C0C1
:1000100073C072C071C070C06FC06EC06DC0090285
:100020002200010100801909040000010301010000
:10003000092101010001223F000705810308000A90
:100040001201100100000008424231E100010102EA
:100050000001100331004B00650079005F0078005B
:1000600035001C03440057004C0065006C0065001F
:100070006300740072006F002E00630061000403CF
:10008000090405010906A10175019508050719E094
:1000900029E7150025018102950175088103950561
:1000A0007501050819012905910295017503910350
:1000B0009506750815002565050719002965810055
:1000C000C00011241FBECFE5D1E0DEBFCDBF10E0E0
:1000D000A0E6B0E0ECE7F8E002C005900D92A6368D
:1000E000B107D9F720E0A6E6B0E001C01D92AA3A18
:1000F000B207E1F76BD3C0C383CFCF93C62F209154
:100100007D0024FF07C030917E0028E8232720933C
:100110007E0003C02AE520937D00DC01EFE7F0E0DC
:100120009C2F9E0F8D918193892F8E1B1816D4F3CF
:100130006C2F8FE790E04BD1CC5FC0937D00CF91C7
:100140000895CF93DF9360918E00635067FDC4C024
:1001500080918B00CCE0D0E0C81BD109CE56DF4F98
:1001600080918A008D3209F0A6C0683009F0B2C0D3
:1001700083EC809372008AE58093610010926600A0
:100180008881807639F0CE0184D2982F8F3F09F490
:1001900081C087C09A8110927B008981811106C03D
:1001A00010927C002BE730E092E06FC0853019F4AC
:1001B00090938F0067C0863009F04EC08B818130EC
:1001C00041F480E490E090938D0080938C0092E164
:1001D0003FC0823041F48EE190E090938D00809397
:1001E0008C0092E235C08330F1F4911108C08EE7A3
:1001F00090E090938D0080938C0094E029C0913022
:1002000041F482E690E090938D0080938C009CE115
:100210001FC09230E1F482E590E090938D008093CE
:100220008C0090E115C0813241F480E390E090931E
:100230008D0080938C0099E00BC0823241F482E8FB
:1002400090E090938D0080938C009FE301C090E03C
:1002500080E48093660025C0883069F0893019F405
:10026000909391000FC08A3049F08B3059F48BE4A1
:1002700080937E0007C021E930E002C02BE730E028
:1002800091E003C02BE730E090E030938D002093A5
:100290008C0007C0888187FD9E8180E8809366007E
:1002A00007C08F81811104C08E81891708F4982FAF
:1002B000909360000FC08091660087FF0BC0CE0155
:1002C0001BD28F3F21F48EE18093610003C0811126
:1002D0001092600010928E008091610084FF48C0EF
:1002E000809160008F3F09F443C0C82F893008F027
:1002F000C8E08C1B809360009091720088E8892789
:1003000080937200CC2339F180918C0090918D0004
:100310002091660026FF0BC0A3E7B0E0FC012C2F64
:10032000280F34913D9331962E13FBCF09C0DC0189
:10033000E3E7F0E02C2F2E0F3D9131932E13FCCFED
:100340002FEF2C0F30E02F5F3F4F820F931F9093C2
:100350008D0080938C006C2F83E790E038D064E0B0
:100360006C0F6C3019F08FEF809360006093610028
:1003700084E196B3967031F48150D9F710928F00D2
:1003800010928900DF91CF91089585B7826085BF73
:100390008BB780648BBFEDE7F0E08BE481838AE567
:1003A00080830895A82FB92F80E090E041E050EAC3
:1003B000609530E009C02D9182279795879510F0C0
:1003C00084279527305EC8F36F5FA8F30895EADFAE
:1003D0008D939D930895CF93CFB7CF93C395B19B42
:1003E000E9F7B19B0BC0B19B09C0B19B07C0B19BA2
:1003F00005C0B19B03C0B19B01C0D5C00F92DF9374
:10040000C0918B00DD27CE56DF4F012EB19B03C07C
:10041000DF910F90E6CF2F930F931F934F932FEF02
:100420004F6F06B301FB20F95F933F9350E03BE031
:1004300065C016B30126502951FDC89556B3012752
:1004400001FB25F92F7306B3B1F05027102711FBDC
:1004500026F906B22230F0F000C016B3012701FBE6
:1004600027F90126502906B22430E8F54F77206895
:1004700016B30000F6CF50274F7D206206B2102F32
:10048000000000C006B300265029102711FB26F9F2
:1004900006B2E2CF4F7B06B3206400C0DACF01265C
:1004A0005029167006B269F14E7F2160012F16B3F4
:1004B00028C0002650294D7F06B22260102F29C087
:1004C000012650294B7F06B22460012F2DC016B3A0
:1004D00001265029477F2860000006B22EC04F7EBB
:1004E00006B3206130C0422706B349930026502945
:1004F000102706B24FEF11FB20F9297F16B379F2CE
:10050000167059F10126502906B2012701FB21F985
:10051000237F06B371F2002650293150D0F006B285
:10052000102711FB22F9277E16B351F2012650291C
:10053000012701FB06B223F92F7C49F2000006B324
:10054000102711FB24F90026502906B22F7939F221
:1005500070CF10E41ABF002719C03B503195C31B60
:10056000D04010E41ABF0881033C09F10B34F9F0C4
:10057000209189001981110F1213EDCF4A81441F78
:10058000093651F10D3211F0013E29F70093900028
:100590003F915F914F911F910F912F91DF910F909C
:1005A000CAB7C6FD1BCFCF91CFBFCF911895209171
:1005B0009000222369F310918E00112379F53430D5
:1005C0007AF130938E0020938A0010918B003BE0EB
:1005D000311B30938B0024C000918E000130F4F465
:1005E0000AE54F7049F43091610034FD1AC0009360
:1005F0006100C2E7D0E019C030917D0034FD11C028
:1006000000937D00CEE7D0E010C0052710E000C0C9
:1006100021C0052710E0C89508BB14C03AE501C009
:1006200032ED032EC0E0D0E032E017B31660C19A7D
:1006300008B317BB56E020E84FEF20FF052708BBA3
:10064000279517951C3F28F700004552B0F720FF6B
:100650000527279508BB17951C3FB8F629913A95B1
:1006600061F7097F10918F00110F08BBC250D04075
:1006700011F01093890010E41ABF026017B3197FBC
:10068000402F497F54E05A95F1F708BB17BB48BB90
:100690007FCFFC0180818076803261F5918192303C
:1006A00009F170F4913031F58AE690E090938D0075
:1006B00080938C0010926A0010926C0088E008957C
:1006C000993031F09A30B1F483818093690012C07F
:1006D00091E0268137812130310509F090E0892FA2
:1006E0008195089589E690E090938D0080938C0029
:1006F00081E0089580E00895FC018081909164007C
:10070000891749F0809364008091640080FF02C0E3
:10071000C09A01C0C09881E0089580936A00662362
:1007200019F060936C00089510926C0008951F9268
:100730000F920FB60F9211242F933F938F939F9395
:100740003091A90026B3209523278091630082234E
:1007500080958093630090916200922398279093F4
:1007600062002823822F8923982F93279093A90032
:100770002091A8008923822B8093A8009F918F91BC
:100780003F912F910F900FBE0F901F901895F894E6
:100790009091A80089239091A80098279093A80091
:1007A0007894089580E1F3DF882379F080916800E0
:1007B000882329F010926800C39882E004C081E089
:1007C00080936800C39A809367000895BB9AB89A93
:1007D000C49A10926A0010926B0010926C001092F2
:1007E0006D0010926E0010926F00109270001092C7
:1007F00071009EE088E10FB6F894A89581BD0FBE08
:1008000091BDC3DDB99A8AEFA895E9E3F0E231978B
:10081000F1F700C000008150B9F7B99882E083BFBA
:1008200089BF86B380958093A9007894C2E0DAE10D
:10083000A89587DCB7DF80917D0084FFF9CF809198
:1008400067008823A9F3909164009F3F89F381306A
:1008500039F0823051F410926A0010926C0005C099
:10086000C0936A00D0936C0002C01092670068E0E9
:0C0870008AE690E042DCDCCFF894FFCF79
:06087C00FF5AFFFFFF0020
:00000001FF
